{
  "transactions": [
    {
      "hash": "0x6ee2a6d0a4cf0658ecbd5bb9ca040a72ce95bc23e3f27f71643c6e239a2d852c",
      "transactionType": "CALL",
      "contractName": null,
      "contractAddress": "0x95ca0a568236fc7413cd2b794a7da24422c2bbb6",
      "function": "setRemoteReceiver(bytes32,address)",
      "arguments": [
        "0xe6229f117d34bc4848085d85f8b4a171eeae963ec9eaf7505df48e215b503519",
        "0x5aa01B3b5877255cE50cc55e8986a7a5fe29C70e"
      ],
      "transaction": {
        "from": "0x8db97c7cece249c2b98bdc0226cc4c2a57bf52fc",
        "to": "0x95ca0a568236fc7413cd2b794a7da24422c2bbb6",
        "gas": "0x168e1",
        "value": "0x0",
        "input": "0x520240dae6229f117d34bc4848085d85f8b4a171eeae963ec9eaf7505df48e215b5035190000000000000000000000005aa01b3b5877255ce50cc55e8986a7a5fe29c70e",
        "nonce": "0x9",
        "chainId": "0x3e9"
      },
      "additionalContracts": [],
      "isFixedGasLimit": false
    }
  ],
  "receipts": [
    {
      "status": "0x1",
      "cumulativeGasUsed": "0x10546",
      "logs": [],
      "logsBloom": "0x00000000000000000000000000000000000000000000000000000000000000000000000000000000000000000000000000000000000000000000000000000000000000000000000000000000000000000000000000000000000000000000000000000000000000000000000000000000000000000000000000000000000000000000000000000000000000000000000000000000000000000000000000000000000000000000000000000000000000000000000000000000000000000000000000000000000000000000000000000000000000000000000000000000000000000000000000000000000000000000000000000000000000000000000000000000",
      "type": "0x2",
      "transactionHash": "0x6ee2a6d0a4cf0658ecbd5bb9ca040a72ce95bc23e3f27f71643c6e239a2d852c",
      "transactionIndex": "0x0",
      "blockHash": "0x6004caa292dad4b771e580cfc0ff42048a0ae3f26e9bef181a95abce4d5128d4",
      "blockNumber": "0xd",
      "gasUsed": "0x10546",
      "effectiveGasPrice": "0x5d21dba01",
      "from": "0x8db97c7cece249c2b98bdc0226cc4c2a57bf52fc",
      "to": "0x95ca0a568236fc7413cd2b794a7da24422c2bbb6",
      "contractAddress": null
    }
  ],
  "libraries": [],
  "pending": [],
  "returns": {},
  "timestamp": 1764862685980,
  "chain": 1001,
  "commit": "f7e9706"
}