{
  "transactions": [
    {
      "hash": "0xb0e42d21bea3a3519f457c425167bdacf91b732ea421a59f5d8af92975ec8b12",
      "transactionType": "CALL",
      "contractName": null,
      "contractAddress": "0x52c84043cd9c865236f11d9fc9f56aa003c1f922",
      "function": "setRemoteReceiver(bytes32,address)",
      "arguments": [
        "0xda84bf13c2354aab48b684d7a177e14a91fb86bdada0e84361e30f6465f3b47b",
        "0x52C84043CD9c865236f11d9Fc9F56aa003c1f922"
      ],
      "transaction": {
        "from": "0x8db97c7cece249c2b98bdc0226cc4c2a57bf52fc",
        "to": "0x52c84043cd9c865236f11d9fc9f56aa003c1f922",
        "gas": "0x168e1",
        "value": "0x0",
        "input": "0x520240dada84bf13c2354aab48b684d7a177e14a91fb86bdada0e84361e30f6465f3b47b00000000000000000000000052c84043cd9c865236f11d9fc9f56aa003c1f922",
        "nonce": "0x1",
        "chainId": "0x3e9"
      },
      "additionalContracts": [],
      "isFixedGasLimit": false
    }
  ],
  "receipts": [
    {
      "status": "0x1",
      "cumulativeGasUsed": "0x10546",
      "logs": [],
      "logsBloom": "0x00000000000000000000000000000000000000000000000000000000000000000000000000000000000000000000000000000000000000000000000000000000000000000000000000000000000000000000000000000000000000000000000000000000000000000000000000000000000000000000000000000000000000000000000000000000000000000000000000000000000000000000000000000000000000000000000000000000000000000000000000000000000000000000000000000000000000000000000000000000000000000000000000000000000000000000000000000000000000000000000000000000000000000000000000000000",
      "type": "0x2",
      "transactionHash": "0xb0e42d21bea3a3519f457c425167bdacf91b732ea421a59f5d8af92975ec8b12",
      "transactionIndex": "0x0",
      "blockHash": "0xf1e1ea5fc3fafbd8fc7ab5caa416a4167fe88336e3e5321ccf0f0bac443c5fd7",
      "blockNumber": "0x5",
      "gasUsed": "0x10546",
      "effectiveGasPrice": "0x5d21dba01",
      "from": "0x8db97c7cece249c2b98bdc0226cc4c2a57bf52fc",
      "to": "0x52c84043cd9c865236f11d9fc9f56aa003c1f922",
      "contractAddress": null
    }
  ],
  "libraries": [],
  "pending": [],
  "returns": {},
  "timestamp": 1764880502251,
  "chain": 1001,
  "commit": "a6d7582"
}