{
  "transactions": [
    {
      "hash": "0x949a698af7b8d3f0c3a54f97d85b9aeee58468b101f90c43522fc07f15c13499",
      "transactionType": "CALL",
      "contractName": null,
      "contractAddress": "0x17ab05351fc94a1a67bf3f56ddbb941ae6c63e25",
      "function": "setRemoteReceiver(bytes32,address)",
      "arguments": [
        "0xb1827c625b4b61ae5cd9efb6b8acf274302add82948e78f6dc160b865149a8d0",
        "0x17aB05351fC94a1a67Bf3f56DdbB941aE6c63E25"
      ],
      "transaction": {
        "from": "0x8db97c7cece249c2b98bdc0226cc4c2a57bf52fc",
        "to": "0x17ab05351fc94a1a67bf3f56ddbb941ae6c63e25",
        "gas": "0x168c3",
        "value": "0x0",
        "input": "0x520240dab1827c625b4b61ae5cd9efb6b8acf274302add82948e78f6dc160b865149a8d000000000000000000000000017ab05351fc94a1a67bf3f56ddbb941ae6c63e25",
        "nonce": "0x2",
        "chainId": "0x3e9"
      },
      "additionalContracts": [],
      "isFixedGasLimit": false
    }
  ],
  "receipts": [
    {
      "status": "0x1",
      "cumulativeGasUsed": "0x10530",
      "logs": [],
      "logsBloom": "0x00000000000000000000000000000000000000000000000000000000000000000000000000000000000000000000000000000000000000000000000000000000000000000000000000000000000000000000000000000000000000000000000000000000000000000000000000000000000000000000000000000000000000000000000000000000000000000000000000000000000000000000000000000000000000000000000000000000000000000000000000000000000000000000000000000000000000000000000000000000000000000000000000000000000000000000000000000000000000000000000000000000000000000000000000000000",
      "type": "0x2",
      "transactionHash": "0x949a698af7b8d3f0c3a54f97d85b9aeee58468b101f90c43522fc07f15c13499",
      "transactionIndex": "0x0",
      "blockHash": "0xe41dffee390c59aeb3421ca5ab411eb64b0b5dd6ae164e0748424d1dbe084840",
      "blockNumber": "0x6",
      "gasUsed": "0x10530",
      "effectiveGasPrice": "0x5d21dba01",
      "from": "0x8db97c7cece249c2b98bdc0226cc4c2a57bf52fc",
      "to": "0x17ab05351fc94a1a67bf3f56ddbb941ae6c63e25",
      "contractAddress": null
    }
  ],
  "libraries": [],
  "pending": [],
  "returns": {},
  "timestamp": 1764843096247,
  "chain": 1001,
  "commit": null
}