{
  "transactions": [
    {
      "hash": "0x8095b279477caa500d499eb9366990f2f44413b151a01c71c3a9a92ddd49d804",
      "transactionType": "CALL",
      "contractName": null,
      "contractAddress": "0x5db9a7629912ebf95876228c24a848de0bfb43a9",
      "function": "setRemoteReceiver(bytes32,address)",
      "arguments": [
        "0xb1827c625b4b61ae5cd9efb6b8acf274302add82948e78f6dc160b865149a8d0",
        "0x5aa01B3b5877255cE50cc55e8986a7a5fe29C70e"
      ],
      "transaction": {
        "from": "0x8db97c7cece249c2b98bdc0226cc4c2a57bf52fc",
        "to": "0x5db9a7629912ebf95876228c24a848de0bfb43a9",
        "gas": "0x168c3",
        "value": "0x0",
        "input": "0x520240dab1827c625b4b61ae5cd9efb6b8acf274302add82948e78f6dc160b865149a8d00000000000000000000000005aa01b3b5877255ce50cc55e8986a7a5fe29c70e",
        "nonce": "0x4",
        "chainId": "0x3e9"
      },
      "additionalContracts": [],
      "isFixedGasLimit": false
    }
  ],
  "receipts": [
    {
      "status": "0x1",
      "cumulativeGasUsed": "0x10530",
      "logs": [],
      "logsBloom": "0x00000000000000000000000000000000000000000000000000000000000000000000000000000000000000000000000000000000000000000000000000000000000000000000000000000000000000000000000000000000000000000000000000000000000000000000000000000000000000000000000000000000000000000000000000000000000000000000000000000000000000000000000000000000000000000000000000000000000000000000000000000000000000000000000000000000000000000000000000000000000000000000000000000000000000000000000000000000000000000000000000000000000000000000000000000000",
      "type": "0x2",
      "transactionHash": "0x8095b279477caa500d499eb9366990f2f44413b151a01c71c3a9a92ddd49d804",
      "transactionIndex": "0x0",
      "blockHash": "0x9fa2e429e307b1ba1ae33859143567c92e06a1d5e0ce28aff3b6b1bfd42477e2",
      "blockNumber": "0x8",
      "gasUsed": "0x10530",
      "effectiveGasPrice": "0x5d21dba01",
      "from": "0x8db97c7cece249c2b98bdc0226cc4c2a57bf52fc",
      "to": "0x5db9a7629912ebf95876228c24a848de0bfb43a9",
      "contractAddress": null
    }
  ],
  "libraries": [],
  "pending": [],
  "returns": {},
  "timestamp": 1764843741989,
  "chain": 1001,
  "commit": null
}