{
  "transactions": [
    {
      "hash": "0x3dfb6c3fc41cefbe1cb0cbae8180be3d59fdc8bf24e8ba9935ded326ea5431ef",
      "transactionType": "CALL",
      "contractName": null,
      "contractAddress": "0x5db9a7629912ebf95876228c24a848de0bfb43a9",
      "function": "setRemoteReceiver(bytes32,address)",
      "arguments": [
        "0xe6229f117d34bc4848085d85f8b4a171eeae963ec9eaf7505df48e215b503519",
        "0x17aB05351fC94a1a67Bf3f56DdbB941aE6c63E25"
      ],
      "transaction": {
        "from": "0x8db97c7cece249c2b98bdc0226cc4c2a57bf52fc",
        "to": "0x5db9a7629912ebf95876228c24a848de0bfb43a9",
        "gas": "0x168e1",
        "value": "0x0",
        "input": "0x520240dae6229f117d34bc4848085d85f8b4a171eeae963ec9eaf7505df48e215b50351900000000000000000000000017ab05351fc94a1a67bf3f56ddbb941ae6c63e25",
        "nonce": "0x4",
        "chainId": "0x3e9"
      },
      "additionalContracts": [],
      "isFixedGasLimit": false
    }
  ],
  "receipts": [
    {
      "status": "0x1",
      "cumulativeGasUsed": "0x10546",
      "logs": [],
      "logsBloom": "0x00000000000000000000000000000000000000000000000000000000000000000000000000000000000000000000000000000000000000000000000000000000000000000000000000000000000000000000000000000000000000000000000000000000000000000000000000000000000000000000000000000000000000000000000000000000000000000000000000000000000000000000000000000000000000000000000000000000000000000000000000000000000000000000000000000000000000000000000000000000000000000000000000000000000000000000000000000000000000000000000000000000000000000000000000000000",
      "type": "0x2",
      "transactionHash": "0x3dfb6c3fc41cefbe1cb0cbae8180be3d59fdc8bf24e8ba9935ded326ea5431ef",
      "transactionIndex": "0x0",
      "blockHash": "0x35c819584afcd4c02a09da1a89ee27944ba6ac3089f12f1d5467f568271a688b",
      "blockNumber": "0x8",
      "gasUsed": "0x10546",
      "effectiveGasPrice": "0x5d21dba01",
      "from": "0x8db97c7cece249c2b98bdc0226cc4c2a57bf52fc",
      "to": "0x5db9a7629912ebf95876228c24a848de0bfb43a9",
      "contractAddress": null
    }
  ],
  "libraries": [],
  "pending": [],
  "returns": {},
  "timestamp": 1764861306773,
  "chain": 1001,
  "commit": "f7e9706"
}