{
  "transactions": [
    {
      "hash": "0x2c553ce75609cbca1bde431d6916fabc87257a73b348eda9f39343f0537b6ff2",
      "transactionType": "CALL",
      "contractName": null,
      "contractAddress": "0x95ca0a568236fc7413cd2b794a7da24422c2bbb6",
      "function": "setRemoteReceiver(bytes32,address)",
      "arguments": [
        "0xb1827c625b4b61ae5cd9efb6b8acf274302add82948e78f6dc160b865149a8d0",
        "0x4Ac1d98D9cEF99EC6546dEd4Bd550b0b287aaD6D"
      ],
      "transaction": {
        "from": "0x8db97c7cece249c2b98bdc0226cc4c2a57bf52fc",
        "to": "0x95ca0a568236fc7413cd2b794a7da24422c2bbb6",
        "gas": "0x168c3",
        "value": "0x0",
        "input": "0x520240dab1827c625b4b61ae5cd9efb6b8acf274302add82948e78f6dc160b865149a8d00000000000000000000000004ac1d98d9cef99ec6546ded4bd550b0b287aad6d",
        "nonce": "0x9",
        "chainId": "0x3e9"
      },
      "additionalContracts": [],
      "isFixedGasLimit": false
    }
  ],
  "receipts": [
    {
      "status": "0x1",
      "cumulativeGasUsed": "0x10530",
      "logs": [],
      "logsBloom": "0x00000000000000000000000000000000000000000000000000000000000000000000000000000000000000000000000000000000000000000000000000000000000000000000000000000000000000000000000000000000000000000000000000000000000000000000000000000000000000000000000000000000000000000000000000000000000000000000000000000000000000000000000000000000000000000000000000000000000000000000000000000000000000000000000000000000000000000000000000000000000000000000000000000000000000000000000000000000000000000000000000000000000000000000000000000000",
      "type": "0x2",
      "transactionHash": "0x2c553ce75609cbca1bde431d6916fabc87257a73b348eda9f39343f0537b6ff2",
      "transactionIndex": "0x0",
      "blockHash": "0x6144c0c8f59214b6cc4f47d950f112fa0fcb39228b296f558b8115139f43fc04",
      "blockNumber": "0xd",
      "gasUsed": "0x10530",
      "effectiveGasPrice": "0x5d21dba01",
      "from": "0x8db97c7cece249c2b98bdc0226cc4c2a57bf52fc",
      "to": "0x95ca0a568236fc7413cd2b794a7da24422c2bbb6",
      "contractAddress": null
    }
  ],
  "libraries": [],
  "pending": [],
  "returns": {},
  "timestamp": 1764845309376,
  "chain": 1001,
  "commit": null
}