{
  "transactions": [
    {
      "hash": "0xf59ddca9907342fbdbc90d8848048c4097955be8baa45f1bf750e76e30ecf060",
      "transactionType": "CALL",
      "contractName": null,
      "contractAddress": "0x52c84043cd9c865236f11d9fc9f56aa003c1f922",
      "function": "setRemoteReceiver(bytes32,address)",
      "arguments": [
        "0xe6229f117d34bc4848085d85f8b4a171eeae963ec9eaf7505df48e215b503519",
        "0x52C84043CD9c865236f11d9Fc9F56aa003c1f922"
      ],
      "transaction": {
        "from": "0x8db97c7cece249c2b98bdc0226cc4c2a57bf52fc",
        "to": "0x52c84043cd9c865236f11d9fc9f56aa003c1f922",
        "gas": "0x168e1",
        "value": "0x0",
        "input": "0x520240dae6229f117d34bc4848085d85f8b4a171eeae963ec9eaf7505df48e215b50351900000000000000000000000052c84043cd9c865236f11d9fc9f56aa003c1f922",
        "nonce": "0x1",
        "chainId": "0x3e9"
      },
      "additionalContracts": [],
      "isFixedGasLimit": false
    }
  ],
  "receipts": [
    {
      "status": "0x1",
      "cumulativeGasUsed": "0x10546",
      "logs": [],
      "logsBloom": "0x00000000000000000000000000000000000000000000000000000000000000000000000000000000000000000000000000000000000000000000000000000000000000000000000000000000000000000000000000000000000000000000000000000000000000000000000000000000000000000000000000000000000000000000000000000000000000000000000000000000000000000000000000000000000000000000000000000000000000000000000000000000000000000000000000000000000000000000000000000000000000000000000000000000000000000000000000000000000000000000000000000000000000000000000000000000",
      "type": "0x2",
      "transactionHash": "0xf59ddca9907342fbdbc90d8848048c4097955be8baa45f1bf750e76e30ecf060",
      "transactionIndex": "0x0",
      "blockHash": "0xa9e7f5e6225e14d5262cd30299a379ea7d2ac4ecb7a630cfc406f7a2fbd0e6a4",
      "blockNumber": "0x5",
      "gasUsed": "0x10546",
      "effectiveGasPrice": "0x5d21dba01",
      "from": "0x8db97c7cece249c2b98bdc0226cc4c2a57bf52fc",
      "to": "0x52c84043cd9c865236f11d9fc9f56aa003c1f922",
      "contractAddress": null
    }
  ],
  "libraries": [],
  "pending": [],
  "returns": {},
  "timestamp": 1764858833925,
  "chain": 1001,
  "commit": "f7e9706"
}