{
  "transactions": [
    {
      "hash": "0xc2c8175bc7bf7cd3be5606d1c53d71ea535e81daea31ca36303d4af2870ee0a5",
      "transactionType": "CALL",
      "contractName": null,
      "contractAddress": "0x0d45537c1da893148dbb113407698e20cfa2ee56",
      "function": "setRemoteReceiver(bytes32,address)",
      "arguments": [
        "0x000000000000000000000000000000000000000000000000000000000000a869",
        "0x2A3E54D66c78cB58052B8eAb677c973814Bc8A3f"
      ],
      "transaction": {
        "from": "0x9c8d572e0c427c37223c7c1b49103ccd38b8847b",
        "to": "0x0d45537c1da893148dbb113407698e20cfa2ee56",
        "gas": "0x166ef",
        "value": "0x0",
        "input": "0x520240da000000000000000000000000000000000000000000000000000000000000a8690000000000000000000000002a3e54d66c78cb58052b8eab677c973814bc8a3f",
        "nonce": "0x7",
        "chainId": "0xa869"
      },
      "additionalContracts": [],
      "isFixedGasLimit": false
    }
  ],
  "receipts": [
    {
      "status": "0x1",
      "cumulativeGasUsed": "0x103de",
      "logs": [],
      "logsBloom": "0x00000000000000000000000000000000000000000000000000000000000000000000000000000000000000000000000000000000000000000000000000000000000000000000000000000000000000000000000000000000000000000000000000000000000000000000000000000000000000000000000000000000000000000000000000000000000000000000000000000000000000000000000000000000000000000000000000000000000000000000000000000000000000000000000000000000000000000000000000000000000000000000000000000000000000000000000000000000000000000000000000000000000000000000000000000000",
      "type": "0x0",
      "transactionHash": "0xc2c8175bc7bf7cd3be5606d1c53d71ea535e81daea31ca36303d4af2870ee0a5",
      "transactionIndex": "0x0",
      "blockHash": "0x29eb7777295e624c10ccbce47ce1939c2f97ed93e09e4e004435e7a866d478cc",
      "blockNumber": "0x2e476be",
      "gasUsed": "0x103de",
      "effectiveGasPrice": "0x2",
      "from": "0x9c8d572e0c427c37223c7c1b49103ccd38b8847b",
      "to": "0x0d45537c1da893148dbb113407698e20cfa2ee56",
      "contractAddress": null
    }
  ],
  "libraries": [],
  "pending": [],
  "returns": {},
  "timestamp": 1764947007845,
  "chain": 43113,
  "commit": "3177d91"
}