{
  "transactions": [
    {
      "hash": "0x6440452786104931b8838c178dcf9b446162f7b483e1cc6ff670710121536b2b",
      "transactionType": "CALL",
      "contractName": null,
      "contractAddress": "0x7300e7fdcd558d4bdf7f18691eea56b5b43f5e05",
      "function": "setRemoteReceiver(bytes32,address)",
      "arguments": [
        "0x000000000000000000000000000000000000000000000000000000000000a869",
        "0x05478Ead1A3401dc323b7F6059871bCeEdab5486"
      ],
      "transaction": {
        "from": "0x9c8d572e0c427c37223c7c1b49103ccd38b8847b",
        "to": "0x7300e7fdcd558d4bdf7f18691eea56b5b43f5e05",
        "gas": "0x166ef",
        "value": "0x0",
        "input": "0x520240da000000000000000000000000000000000000000000000000000000000000a86900000000000000000000000005478ead1a3401dc323b7f6059871bceedab5486",
        "nonce": "0x4",
        "chainId": "0xa869"
      },
      "additionalContracts": [],
      "isFixedGasLimit": false
    }
  ],
  "receipts": [
    {
      "status": "0x1",
      "cumulativeGasUsed": "0x103de",
      "logs": [],
      "logsBloom": "0x00000000000000000000000000000000000000000000000000000000000000000000000000000000000000000000000000000000000000000000000000000000000000000000000000000000000000000000000000000000000000000000000000000000000000000000000000000000000000000000000000000000000000000000000000000000000000000000000000000000000000000000000000000000000000000000000000000000000000000000000000000000000000000000000000000000000000000000000000000000000000000000000000000000000000000000000000000000000000000000000000000000000000000000000000000000",
      "type": "0x0",
      "transactionHash": "0x6440452786104931b8838c178dcf9b446162f7b483e1cc6ff670710121536b2b",
      "transactionIndex": "0x0",
      "blockHash": "0x7c418fa5bd049c89d7d88513f05e0cc88a991b879d144224c7231b9709bfbd3f",
      "blockNumber": "0x2e47570",
      "gasUsed": "0x103de",
      "effectiveGasPrice": "0x2",
      "from": "0x9c8d572e0c427c37223c7c1b49103ccd38b8847b",
      "to": "0x7300e7fdcd558d4bdf7f18691eea56b5b43f5e05",
      "contractAddress": null
    }
  ],
  "libraries": [],
  "pending": [],
  "returns": {},
  "timestamp": 1764946569937,
  "chain": 43113,
  "commit": "3177d91"
}