{
  "transactions": [
    {
      "hash": "0xb744774cecfa3b26b7cdf0c99dd4a7f82461d77abc1176bda0241bb1160c9456",
      "transactionType": "CALL",
      "contractName": null,
      "contractAddress": "0xa4cd3b0eb6e5ab5d8ce4065bccd70040adab1f00",
      "function": "setRemoteReceiver(bytes32,address)",
      "arguments": [
        "0xe6229f117d34bc4848085d85f8b4a171eeae963ec9eaf7505df48e215b503519",
        "0x17aB05351fC94a1a67Bf3f56DdbB941aE6c63E25"
      ],
      "transaction": {
        "from": "0x8db97c7cece249c2b98bdc0226cc4c2a57bf52fc",
        "to": "0xa4cd3b0eb6e5ab5d8ce4065bccd70040adab1f00",
        "gas": "0x168e1",
        "value": "0x0",
        "input": "0x520240dae6229f117d34bc4848085d85f8b4a171eeae963ec9eaf7505df48e215b50351900000000000000000000000017ab05351fc94a1a67bf3f56ddbb941ae6c63e25",
        "nonce": "0x6",
        "chainId": "0x3e9"
      },
      "additionalContracts": [],
      "isFixedGasLimit": false
    }
  ],
  "receipts": [
    {
      "status": "0x1",
      "cumulativeGasUsed": "0x10546",
      "logs": [],
      "logsBloom": "0x00000000000000000000000000000000000000000000000000000000000000000000000000000000000000000000000000000000000000000000000000000000000000000000000000000000000000000000000000000000000000000000000000000000000000000000000000000000000000000000000000000000000000000000000000000000000000000000000000000000000000000000000000000000000000000000000000000000000000000000000000000000000000000000000000000000000000000000000000000000000000000000000000000000000000000000000000000000000000000000000000000000000000000000000000000000",
      "type": "0x2",
      "transactionHash": "0xb744774cecfa3b26b7cdf0c99dd4a7f82461d77abc1176bda0241bb1160c9456",
      "transactionIndex": "0x0",
      "blockHash": "0xaff1044102b736270f9f53e7b24237444b71b73e8cd9e134292104aba634df82",
      "blockNumber": "0xa",
      "gasUsed": "0x10546",
      "effectiveGasPrice": "0x5d21dba01",
      "from": "0x8db97c7cece249c2b98bdc0226cc4c2a57bf52fc",
      "to": "0xa4cd3b0eb6e5ab5d8ce4065bccd70040adab1f00",
      "contractAddress": null
    }
  ],
  "libraries": [],
  "pending": [],
  "returns": {},
  "timestamp": 1764861568789,
  "chain": 1001,
  "commit": "f7e9706"
}